:020000040800F2
:1000000000280020BD1F00083D0600083F0600082C
:1000100041060008430600084506000800000000ED
:10002000000000000000000000000000470600087B
:1000300049060008000000004B0600084D060008B5
:1000400005200008052000080520000805200008FC
:1000500005200008052000080520000805200008EC
:1000600005200008052000080520000805200008DC
:1000700005200008052000080520000805200008CC
:1000800005200008052000080520000805200008BC
:1000900005200008052000080520000805200008AC
:1000A000052000080520000805200008052000089C
:1000B00005200008052000080000000005200008B9
:1000C00005200008000000000000000005200008D6
:1000D00000000000052000080520000800000000C6
:1000E0000520000805200008052000080000000089
:1000F0000000000000000000000000000000000000
:0C01000000000000000000005FF808F1A3
:10010C0010B5054C237833B9044B13B10448AFF345
:10011C0000800123237010BD0C00002000000000A3
:10012C006020000808B5034B1BB103490348AFF32B
:10013C00008008BD000000001000002060200008B6
:10014C0053B94AB9002908BF00281CBF4FF0FF3132
:10015C004FF0FF3000F076B9ADF1080C6DE904CE2C
:10016C0000F006F8DDF804E0DDE9022304B0704786
:10017C002DE9F047089E0D4604468846002B4DD1CC
:10018C008A42944668D9B2FA82F252B101FA02F369
:10019C00C2F1200120FA01F10CFA02FC41EA030839
:1001AC0094404FEA1C41B8FBF1F71FFA8CFE01FB9F
:1001BC00178807FB0EF0230C43EA084398420AD930
:1001CC001CEB030307F1FF3580F01E81984240F2CF
:1001DC001B81023F63441B1AB3FBF1F001FB10338C
:1001EC0000FB0EFEA4B244EA0344A6450AD91CEB5C
:1001FC00040400F1FF3380F00981A64540F206812A
:10020C00644402380021A4EB0E0440EA07401EB1FE
:10021C000023D440C6E90043BDE8F0878B4208D9DF
:10022C00002E00F0EE800021C6E900050846BDE86E
:10023C00F087B3FA83F100294AD1AB4202D3824250
:10024C0000F2FC80841A65EB030301209846002E13
:10025C00E2D0C6E90048DFE702B9FFDEB2FA82F26B
:10026C00002A40F09180A1EB0C0001214FEA1C47C1
:10027C001FFA8CFEB0FBF7F307FB1300250C45EAC5
:10028C0000450EFB03F0A84208D91CEB050503F151
:10029C00FF3802D2A84200F2CE8043462D1AB5FB9D
:1002AC00F7F007FB10550EFB00FEA4B244EA054420
:1002BC00A64508D91CEB040400F1FF3502D2A64573
:1002CC0000F2B6802846A4EB0E0440EA03409EE7F9
:1002DC00C1F120078B4022FA07FC4CEA030C25FAEB
:1002EC0007FA4FEA1C49BAFBF9F820FA07F309FBA5
:1002FC0018AA8D401FFA8CFE1D4300FA01F308FB6F
:10030C000EF02C0C44EA0A44A04202FA01F20BD97A
:10031C001CEB040408F1FF3A80F08880A04240F204
:10032C008580A8F102086444241AB4FBF9F009FB97
:10033C00104400FB0EFEADB245EA0444A64508D9B4
:10034C001CEB040400F1FF356CD2A6456AD90238C7
:10035C00644440EA0840A0FB0295A4EB0E04AC42B6
:10036C00C846AE4656D353D0002E69D0B3EB080224
:10037C0064EB0E0422FA01F304FA07F71F43CC4096
:10038C00C6E90074002147E70CFA02FCC2F1200117
:10039C0025FA01F34FEA1C4720FA01F195400D4371
:1003AC00B3FBF7F107FB11331FFA8CFE280C40EA64
:1003BC00034001FB0EF3834204FA02F408D91CEB50
:1003CC00000001F1FF382FD283422DD9023960444D
:1003DC00C01AB0FBF7F307FB1300ADB245EA0045BA
:1003EC0003FB0EF0A84208D91CEB050503F1FF38FE
:1003FC0016D2A84214D9023B6544281A43EA01419B
:10040C0038E73146304607E72F46E4E61846F9E66A
:10041C004B45A9D2B9EB020865EB0C0E0138A3E7EA
:10042C004346EAE7284694E74146D1E7D0467BE7C6
:10043C006444023847E7023B65442FE7084606E769
:10044C003146E9E6704700BF30B587B0002402940E
:10045C000394049405940E4B9A6942F004029A6139
:10046C009B6903F004030193019B0A4D224608216A
:10047C00284601F091F90823029301230393049475
:10048C000223059302A9284601F076F807B030BD87
:10049C0000100240000801400B4B0C4A5A60FF222E
:1004AC001A7200229A72DA72072119735973012198
:1004BC009973DA73342119820C215982022119752E
:1004CC001A765A765A757047C80000208050DE198B
:1004DC0072B6FEE708B50D480D4B03604FF48273FE
:1004EC00436000238360C360036143614FF4802247
:1004FC0082611022C2610362436283620A23C36277
:10050C0000F0BEF900B908BDFFF7E2FF280000209B
:10051C000030014000B587B000230293039304938D
:10052C0005930093019314484FF0804202600A2215
:10053C00426083604FF6FF72C2600361836101F019
:10054C00EFF990B94FF48053029302A90A4801F0D5
:10055C001FFA60B90023009301936946064801F025
:10056C0085FA30B907B05DF804FBFFF7B1FFFFF770
:10057C00AFFFFFF7ADFF00BF8000002000B591B0CA
:10058C002822002106A801F05DFD002301930293AF
:10059C000393049305930223069301220A921022DB
:1005AC000B920D934FF440230F9306A800F0F0FC30
:1005BC0078B90F2301930223029380230393002124
:1005CC000491059101A800F021FF20B911B05DF84C
:1005DC0004FBFFF77DFFFFF77BFF000000B583B046
:1005EC0000F088FCFFF7CAFFFFF72EFFFFF772FF42
:1005FC00FFF790FF012208210A4801F0CDF8FFF720
:10060C004BFF43F21343ADF804300749074801F0A0
:10061C007EFC00B9FEE702236A460349034801F059
:10062C0005FBF8E700080140C80000202800002066
:10063C00FEE7FEE7FEE7FEE7FEE770477047704710
:10064C0008B500F069FC08BD82B00A4B9A6942F00B
:10065C0001029A619A6902F001020092009ADA6929
:10066C0042F08052DA61DB6903F080530193019B05
:10067C0002B070470010024010B586B00023029300
:10068C000393049305930268164B9A4201D006B06B
:10069C0010BD03F560439A6942F480529A619A69DD
:1006AC0002F480520092009A9A6942F004029A6114
:1006BC009B6903F004030193019BB0230293022373
:1006CC00039303230593084C02A9204600F054FF22
:1006DC004023029300230393049302A9204600F0C5
:1006EC004BFFD4E700300140000801400368B3F130
:1006FC00804F00D0704782B003F50433DA6942F0C2
:10070C000102DA61DB6903F001030193019B02B082
:10071C00704700002DE9F04782B005468846174621
:10072C001E4600F005FC0A9B1B1A03EB060900F0A1
:10073C00FFFB82462B4B1B68C3F3CB3309FB03F344
:10074C0001932B689C6838EA04030CBF4FF0010C32
:10075C004FF0000CBC4540D0B6F1FF3FF1D000F09B
:10076C00E7FBA0EB0A0048450AD2B9F1000F07D00D
:10077C00019A02B14A46019B013B01939146E0E785
:10078C002A68536823F0E00353606B68B3F5827FEB
:10079C000BD0AB6AB3F5005F14D0012385F8513050
:1007AC00002385F85030032018E0AB68B3F5004FF8
:1007BC0002D0B3F5806FECD12A68136823F04003A4
:1007CC001360E6E72A68136823F4005313602A6861
:1007DC00136843F400531360DFE7002002B0BDE858
:1007EC00F08700BF0800002010B582B004460B460D
:1007FC00009200228021FFF78DFF08B902B010BDD6
:10080C00636D43F0200363650320F7E710B582B0F6
:10081C0004460B464168B1F5827F10D06168B1F592
:10082C00827F03D1A168B1F5806F15D000920022B0
:10083C0080212046FFF76EFFE0B902B010BD816841
:10084C00B1F5004F02D0B1F5806FE7D12068016897
:10085C0021F040010160E1E70092002201212046D5
:10086C00FFF758FF0028E8D0636D43F02003636561
:10087C000320E2E7636D43F0200363650320DCE7AC
:10088C00002856D010B50446436A33B94368B3F513
:10089C00827F05D00023C36102E000230361436122
:1008AC000023A36294F85130002B3CD0022384F82F
:1008BC0051302268136823F040031360636803F41B
:1008CC008273A26802F404421343E26802F40062E9
:1008DC001343226902F002021343626902F001021F
:1008EC001343A26902F400721343E26902F0380266
:1008FC001343226A02F080021343A26A02F40052EC
:10090C00216813430B60638B226803F0040353606C
:10091C002268D36923F40063D3610020606501234E
:10092C0084F8513010BD84F850302046FFF7A4FEF7
:10093C00BCE7012070472DE9F04383B01D4690F8C9
:10094C005030012B00F0D18004468846914601239B
:10095C0080F8503000F0ECFA074694F85160F6B28B
:10096C00012E40F0AF80B8F1000F00F0AC80B9F16F
:10097C00000F00F0A880032384F851300023636536
:10098C00C4F83080A4F83490A4F83690A363A387FD
:10099C00E38763642364A368B3F5004F1ED0236818
:1009AC001A6812F0400F03D11A6842F040021A6024
:1009BC00E368B3F5006F1CD0636813B1B9F1010F94
:1009CC0052D1226B236812781A73236B0133236381
:1009DC00E38E9BB2013B9BB2E38645E02268136831
:1009EC0023F0400313602268136843F480431360C0
:1009FC00D5E7636813B1B9F1010F16D1226B2368E7
:100A0C001288DA60236B02332363E38E9BB2013BC3
:100A1C009BB2E38609E000F08BFAC01BA84202D31C
:100A2C00B5F1FF3F59D1002D59D0E38E9BB2002B6D
:100A3C0033D023689A6812F0020FECD0226B128824
:100A4C00DA60236B02332363E38E9BB2013B9BB2D0
:100A5C00E386EAE700F06CFAC01BA84202D3B5F1BA
:100A6C00FF3F3ED1002D3ED0E38E9BB2ABB123684D
:100A7C009A6812F0020FEDD0226B12781A73236B66
:100A8C0001332363B4F836C01FFA8CFC0CF1FF3C25
:100A9C001FFA8CFCA4F836C0E6E73A4629462046F5
:100AAC00FFF7A2FE08B120236365A36833B9019355
:100ABC002368DA6801929B680193019B636D13B9FB
:100ACC00002600E00226012384F85130002384F82C
:100ADC005030304603B0BDE8F0830326F3E703261D
:100AEC00F1E70326EFE70326EDE70226F1E72DE910
:100AFC00F04383B01F460A9D90F85030012B00F054
:100B0C001081044688469146012380F8503000F04D
:100B1C000FFA064694F85130DBB26268012B0AD00A
:100B2C00B2F5827F40F0E380A268002A40F0E980B1
:100B3C00042B40F0E880B8F1000F00F0E680B9F12A
:100B4C00000F00F0E480002F00F0E38094F85130A7
:100B5C00DBB2042B02D0052384F8513000236365EB
:100B6C00C4F83890E787A787C4F83080E786A78653
:100B7C002364636423681A6812F0400F03D11A6867
:100B8C0042F040021A60E368B3F5006F11D063685D
:100B9C000BB1012F0BD1226B236812781A73236BC4
:100BAC0001332363E38E9BB2013B9BB2E3860127A7
:100BBC006BE063680BB1012F0BD1226B2368128899
:100BCC00DA60236B02332363E38E9BB2013B9BB24F
:100BDC00E38601271CE023689A6812F0010F0ED0FF
:100BEC00E28F92B25AB1DA68A36B1A80A36B02330C
:100BFC00A363E38F9BB2013B9BB2E387012700F019
:100C0C0097F9801BA84203D3B5F1FF3F40F08380D6
:100C1C00E38E9BB21BB9E38F9BB2002B53D023689E
:100C2C009A6812F0020FD6D0E28E92B2002AD2D07D
:100C3C00002FD0D0226B1288DA60236B023323632F
:100C4C00E38E9BB2013B9BB2E3860027C3E723688C
:100C5C009A6812F0010F0ED0E28F92B25AB1DA6894
:100C6C00A36B1A70A36B0133A363E38F9BB2013B9D
:100C7C009BB2E387012700F05BF9831BAB4202D3E5
:100C8C00B5F1FF3F49D1002D49D0E38E9BB213B98A
:100C9C00E38F9BB2BBB123689A6812F0020FD6D0D7
:100CAC00E28E92B2002AD2D0002FD0D0226B1278D2
:100CBC001A73236B01332363E38E9BB2013B9BB20C
:100CCC00E3860027C3E7324629462046FFF78CFD12
:100CDC0048B9A36863B901932368DA6801929B68E9
:100CEC000193019B04E020236365012000E00220B6
:100CFC00012384F85130002384F8503003B0BDE850
:100D0C00F0830220F4E70220F2E70120F0E7012053
:100D1C00EEE70120ECE70320EAE70320E8E70320F5
:100D2C00E6E70220EAE72DE9F04383B00446884663
:100D3C0091461D464068B0F5827F38D094F850300B
:100D4C00012B00F0AE80012384F8503000F0F0F855
:100D5C00074694F85160F6B2012E40F08F80B8F13E
:100D6C00000F00F08C80B9F1000F00F08880042394
:100D7C0084F8513000236365C4F83880A4F83C90A3
:100D8C00A4F83E902363A386E38623646364A3687C
:100D9C00B3F5004F19D023681A6812F0400F03D135
:100DAC001A6842F040021A60E3681BB341E0A36882
:100DBC00002BC3D1042384F85130009513460A4606
:100DCC002046FFF794FE06465FE02268136823F086
:100DDC00400313602268136823F480431360DAE73E
:100DEC0000F0A6F8C01BA84202D3B5F1FF3F50D1CA
:100DFC00002D50D0E38F9BB2002B33D023689A6820
:100E0C0012F0010FECD0A26B1B7B1370A36B0133A0
:100E1C00A363E38F9BB2013B9BB2E387EAE700F04D
:100E2C0087F8C01BA84202D3B5F1FF3F35D1002D86
:100E3C0035D0E38F9BB2ABB123689A6812F0010FE7
:100E4C00EDD0DA68A36B1A80A36B0233A363B4F8FA
:100E5C003EC01FFA8CFC0CF1FF3C1FFA8CFCA4F872
:100E6C003EC0E6E73A4629462046FFF7CFFC08B1DC
:100E7C0020236365636D13B9002600E0022601236D
:100E8C0084F85130002384F85030304603B0BDE86C
:100E9C00F0830326F3E70326F1E70326EFE70326A7
:100EAC00EDE70226F1E7000010B504460E4B18786A
:100EBC004FF47A73B3FBF0F30C4A1068B0FBF3F009
:100ECC0000F0BAFC68B90F2C01D901200AE000220D
:100EDC0021464FF0FF3000F077FC054B1C600020E2
:100EEC0000E0012010BD00BF000000200800002021
:100EFC000400002008B5074A136843F01003136080
:100F0C00032000F04FFC0F20FFF7CEFFFFF79CFBF8
:100F1C00002008BD00200240034A1168034B1B78D7
:100F2C000B441360704700BFE40000200000002059
:100F3C00014B1868704700BFE400002038B5044628
:100F4C00FFF7F6FF0546B4F1FF3F02D0044B1B78C8
:100F5C001C44FFF7EDFF401BA042FAD338BD00BF85
:100F6C000000002082B0084B1B68084AA2FB032338
:100F7C005B0A00FB03F3019300BF019B5A1E019215
:100F8C00002BF9D102B0704708000020D34D62103D
:100F9C00002800F0F18170B582B00446036813F0AC
:100FAC00010F2CD0994B5B6803F00C03042B1DD064
:100FBC00964B5B6803F00C03082B12D06368B3F5F7
:100FCC00803F41D0002B55D103F1804303F504330E
:100FDC001A6822F480321A601A6822F480221A608D
:100FEC0037E08A4B5B6813F4803FE7D0874B1B6874
:100FFC0013F4003F03D06368002B00F0BF8123681B
:10100C0013F0020F75D0814B5B6813F00C0F5FD09F
:10101C007E4B5B6803F00C03082B54D02369002B28
:10102C0000F08A807A4B01221A60FFF781FF054697
:10103C00764B1B6813F0020F75D1FFF779FF401B3D
:10104C000228F5D903209EE1704A136843F48033DB
:10105C001360636843B3FFF76BFF05466B4B1B686C
:10106C0013F4003FCBD1FFF763FF401B6428F5D985
:10107C00032088E1B3F5A02F09D0644B1A6822F441
:10108C0080321A601A6822F480221A60E1E703F1B8
:10109C008043A3F53C331A6842F480221A601A6824
:1010AC0042F480321A60D4E7FFF742FF0546574BF3
:1010BC001B6813F4003FA2D0FFF73AFF401B6428D3
:1010CC00F5D903205FE1514B5B6813F4803FA5D148
:1010DC004E4B1B6813F0020F03D02369012B40F019
:1010EC004F814A4A136823F0F803616943EAC1034C
:1010FC001360236813F0080F33D0A369002B5CD066
:10110C00434B0122C3F88024FFF712FF05463F4BE7
:10111C005B6A13F0020F21D1FFF70AFF401B022874
:10112C00F5D903202FE1394A136823F0F8036169DC
:10113C0043EAC1031360DCE7354B00221A60FFF76A
:10114C00F7FE0546314B1B6813F0020FD1D0FFF7A9
:10115C00EFFE401B0228F5D9032014E10120FFF714
:10116C0001FF236813F0040F00F09680274BDB6916
:10117C0013F0805F34D1254BDA6942F08052DA618A
:10118C00DB6903F080530193019B0125214B1B6804
:10119C0013F4807F26D0E368012B3DD0002B53D174
:1011AC0003F1804303F504331A6A22F001021A6238
:1011BC001A6A22F004021A6233E0154B0022C3F8BB
:1011CC008024FFF7B5FE0546104B5B6A13F0020F47
:1011DC00C7D0FFF7ADFE401B0228F5D90320D2E0A3
:1011EC000025D3E70B4A136843F480731360FFF7B1
:1011FC009FFE0646074B1B6813F4807FCBD1FFF78D
:10120C0097FE801B6428F5D90320BCE00010024037
:10121C0000004242007000405F4A136A43F0010331
:10122C001362E36833B3FFF783FE06465A4B1B6A1F
:10123C0013F0020F2FD1FFF77BFE801B41F2883396
:10124C009842F3D903209EE0052B09D0524B1A6A21
:10125C0022F001021A621A6A22F004021A62E0E712
:10126C004D4B1A6A42F004021A621A6A42F00102E9
:10127C001A62D6E7FFF75CFE0646474B1B6A13F073
:10128C00020F08D0FFF754FE801B41F288339842BE
:10129C00F3D9032077E0E5B9E369002B72D03E4A1D
:1012AC00526802F00C02082A56D0022B17D03B4B86
:1012BC0000221A66FFF73CFE0446374B1B6813F0FE
:1012CC00007F47D0FFF734FE001B0228F5D903201E
:1012DC0059E0314AD36923F08053D361DCE72F4BBB
:1012EC0000221A66FFF724FE05462B4B1B6813F0F1
:1012FC00007F06D0FFF71CFE401B0228F5D9032007
:10130C0041E0236AB3F5803F1AD023494B6823F49C
:10131C007413226A606A024313434B601F4B012211
:10132C001A66FFF705FE04461B4B1B6813F0007F83
:10133C000ED1FFF7FDFD001B0228F5D9032022E09A
:10134C00154A536823F40033A1680B435360DCE760
:10135C00002018E0002016E0012B16D00E4B5B6825
:10136C0003F48031226A914211D103F47013626A42
:10137C0093420ED1002006E001207047012002E0CC
:10138C00012000E0002002B070BD0120FBE701202D
:10139C00F9E70120F7E700BF0010024000004242CD
:1013AC0086B0164B0FCB0DF1180C0CE90F0040F268
:1013BC000123ADF80430124B5B6803F00C02082AD1
:1013CC0002D0104806B07047C3F38342624412F84F
:1013DC00100C13F4803F0CD0094B5B68C3F34043F3
:1013EC00634413F8143C074A02FB00F0B0FBF3F023
:1013FC00E8E7054B03FB00F0E4E700BF78200008AA
:10140C000010024000127A0000093D00002800F094
:10141C00A08070B50D460446524B1B6803F00703C1
:10142C008B420BD24F4A136823F007030B43136014
:10143C00136803F007038B4240F08D80236813F090
:10144C00020F17D013F0040F04D0474A536843F42B
:10145C00E0635360236813F0080F04D0424A5368CA
:10146C0043F460535360404A536823F0F003A1687F
:10147C000B435360236813F0010F31D06368012BC9
:10148C0020D0022B25D0384A126812F0020F64D0FB
:10149C0035494A6822F0030213434B60FFF748FDBD
:1014AC000646314B5B6803F00C036268B3EB820FAA
:1014BC0016D0FFF73DFD801B41F288339842F0D9DE
:1014CC00032045E0284A126812F4003FE0D10120C5
:1014DC003EE0254A126812F0007FD9D1012037E096
:1014EC00204B1B6803F00703AB420AD91D4A136853
:1014FC0023F007032B431360136803F00703AB427D
:10150C002DD1236813F0040F06D0174A536823F427
:10151C00E063E1680B435360236813F0080F07D0B6
:10152C00114A536823F46053216943EAC1035360A1
:10153C00FFF736FF0C4B5B68C3F303130B4AD35C0A
:10154C00D8400B4B18600B4B1868FFF7ADFC002014
:10155C0070BD012070470120FAE70120F8E7012057
:10156C00F6E700BF00200240001002408C2000086B
:10157C00080000200400002070B582B00024A446AE
:10158C008BE07F4DAA4210D007D97E4DAA420CD0D9
:10159C0005F58035AA4208D015E0A5F58015AA42BC
:1015AC0003D005F57025AA4209D18A68002A00F0FB
:1015BC00BF80012A00F0B7804361082403E0A5F541
:1015CC008015AA42F1D0BEF1FF0F00F2B38006469F
:1015DC00BEF1FF0F00F2B0804FEA8C0233680F258A
:1015EC00954023EA050304FA02F2134333604B6877
:1015FC0013F0805F4FD0644B9A6942F001029A61FC
:10160C009B6903F001030193019B4FEA9C02951C1B
:10161C005E4B53F825600CF003039D000F23AB4089
:10162C0026EA03065A4B984200F08C8003F580633F
:10163C00984200F0898003F58063984200F0808026
:10164C000323AB4033430232504D45F822304B68F4
:10165C0013F4803F7AD04F4A136843EA0E031360A9
:10166C004B6813F4003F77D04A4A536843EA0E03A1
:10167C0053604B6813F4801F74D0464A936843EA56
:10168C000E0393604B6813F4001F71D0414AD3686A
:10169C0043EA0E03D3600CF1010C0A6832FA0CF326
:1016AC006CD0012303FA0CF302EA030E33EA0202B4
:1016BC00F1D14A68122A3FF664AF122A83D801A5E9
:1016CC0055F822F0B71500081D1700082717000859
:1016DC0039170008D3150008D3150008D3150008D6
:1016EC00D3150008D3150008D3150008D31500082E
:1016FC00D3150008D3150008D3150008D31500081E
:10170C00D3150008D3150008211700082D17000861
:10171C00CC6858E7CC68043455E7CC68083452E7F9
:10172C00CC680C344FE7036108244CE700244AE7EB
:10173C00042448E7061D4BE7ACF1080292004DE784
:10174C0002237EE700237CE701237AE7114A136822
:10175C0023EA0E03136083E70E4A536823EA0E0351
:10176C00536086E70B4A936823EA0E03936089E77C
:10177C00084AD36823EA0E03D3608CE702B070BD2D
:10178C000000221000003110001002400000014047
:10179C0000080140000401400AB1016170470904CE
:1017AC0001617047074AD36823F4E0631B041B0CE8
:1017BC00000200F4E060034343F0BF6343F40033E2
:1017CC00D360704700ED00E000B5194BDB68C3F344
:1017DC000223C3F1070CBCF1040F28BF4FF0040C1B
:1017EC0003F1040EBEF1060F18D9033B4FF0FF3E78
:1017FC000EFA0CFC21EA0C0199400EFA03F322EAD2
:10180C000303194300280BDB0901C9B200F1604046
:10181C0000F5614080F800135DF804FB0023E5E758
:10182C0000F00F000901C9B2024B1954F4E700BFD4
:10183C0000ED00E014ED00E00138B0F1807F0BD238
:10184C004FF0E0235861054AF02182F82310002064
:10185C00986107221A6170470120704700ED00E083
:10186C0010B4036A046A24F001040462846924F04D
:10187C00F00C4CEA021223F00A030B438261036260
:10188C0010BC704710B4046A24F01004046284691C
:10189C00036A24F4704C4CEA023223F0A00343EAAE
:1018AC0001138261036210BC7047836823F07003DC
:1018BC000B4343F007038360704700000368174A2B
:1018CC00904206D0B0F1804F03D0A2F594329042F2
:1018DC0003D123F070034A681343104A904206D098
:1018EC00B0F1804F03D0A2F59432904203D123F48F
:1018FC004073CA68134323F080034A69134303609F
:10190C008B68C3620B688362044B984202D001233C
:10191C00436170470B690363F9E700BF002C01407A
:10192C0040B310B5044690F83D30F3B1022384F86F
:10193C003D30214651F8040BFFF7C0FF012384F81A
:10194C00463084F83E3084F83F3084F8403084F8D8
:10195C00413084F8423084F8433084F8443084F8C1
:10196C00453084F83D30002010BD80F83C30FEF747
:10197C00BDFEDBE70120704710B4846824F47F4C73
:10198C0042EA03220A4342EA0C02826010BC70470E
:10199C0090F83C30012B66D010B50446012380F83A
:1019AC003C30022380F83D300268936823F47F4377
:1019BC0023F0770393600B68602B40D022D8402B28
:1019CC0047D00BD9502B0ED1CA6849680068FFF775
:1019DC0047FF50212068FFF768FF04E0202B0CD054
:1019EC0008D9302B09D0012384F83D30002084F82D
:1019FC003C0010BD0BB1102BF5D119462068FFF738
:101A0C0054FFF0E7702B0ED0B3F5005FEBD1CB6831
:101A1C004A6889680068FFF7AFFF2268936843F44F
:101A2C0080439360DFE7CB684A6889680068FFF7FA
:101A3C00A3FF2268936843F077039360D3E7CA68E7
:101A4C0049680068FFF71EFF60212068FFF72DFF33
:101A5C00C9E7CA6849680068FFF702FF402120689F
:101A6C00FFF723FFBFE702207047000090F83C30DF
:101A7C00012B28D010B4012380F83C30022380F8CD
:101A8C003D3003685A689C6822F0700C0A6842EA80
:101A9C000C025A6003680D4A934206D0B3F1804F92
:101AAC0003D0A2F59432934204D124F080044A6806
:101ABC0014439C60012380F83D30002380F83C30B7
:101ACC00184610BC70470220704700BF002C014024
:101ADC0070470000F0B583B0044615461E468DF8DD
:101AEC000710CBB203F07F038DF807300C4F0022A8
:101AFC0008213846FFF750FE022301220DF10701A1
:101B0C002046FEF718FF0223324629462046FFF7EF
:101B1C000AF9012208213846FFF73EFE03B0F0BD5A
:101B2C0000080140F0B583B0044615461E468DF8FA
:101B3C000710CBB263F07F038DF807300C4F0022F7
:101B4C0008213846FFF728FE022301220DF1070178
:101B5C002046FEF7F0FE0223324629462046FEF7C9
:101B6C00EAFE012208213846FFF716FE03B0F0BD4D
:101B7C000008014010B582B0044601230DF10602A5
:101B8C001946FFF7A7FF9DF8063063F07F038DF829
:101B9C00073001230DF1070219462046FFF7C2FF5B
:101BAC0002B010BD30B583B004460D4601230DF1D3
:101BBC0007021946FFF78EFF9DF807308DF80630A7
:101BCC0065B903F0F8038DF8063001230DF1060218
:101BDC0019462046FFF7A6FF03B030BD012D0DD0EE
:101BEC00032D13D0052D19D0062DEED123F00703AC
:101BFC005BB243F006038DF80630E6E723F00703EB
:101C0C005BB243F001038DF80630DEE723F00703E7
:101C1C005BB243F003038DF80630D6E723F00703DD
:101C2C005BB243F005038DF80630CEE7F0B583B018
:101C3C00064614461D46FF238DF80530002104E0AE
:101C4C004FF0000C04F801C001318D42F8DC012189
:101C5C003046FFF7A7FF01230DF107021221304692
:101C6C00FFF738FF9DF8077017F0400706D10521E4
:101C7C003046FFF797FF384603B0F0BD01230DF156
:101C8C00050212213046FFF74DFF01230DF106022C
:101C9C0013213046FFF71EFF01230DF1070210211F
:101CAC003046FFF717FF01230DF107020D213046D7
:101CBC00FFF738FF9DF80670AF4228BF2F4600256E
:101CCC0006E0012362190E213046FFF703FF0135B0
:101CDC00AF42F6DCCBE700B583B004238DF80730B8
:101CEC0001230DF107022621FFF71CFF03B05DF85D
:101CFC0004FB000030B583B004464968134A002346
:101D0C00C804490BFEF71CFA0546C0F307438DF8CF
:101D1C00073001230DF1070206212046FFF702FFD1
:101D2C00C5F307238DF8073001230DF107020721B6
:101D3C002046FFF7F7FE8DF8075001230DF107023F
:101D4C0008212046FFF7EEFE03B030BD0048E80145
:101D5C0008B5012301F108020921FFF7E3FE08BDD4
:101D6C0000B583B000238DF807302C290ED9F0294B
:101D7C000DD9F021F02915D81E31144B83FB01230A
:101D8C00C917C1EBA3018DF807100BE02D217829A1
:101D9C00F0D82D390D4B83FB0123C917C1EB63011F
:101DAC008DF807109DF8073023F02E0343F0200325
:101DBC008DF8073001230DF107020B21FFF7B2FE5E
:101DCC000120FFF7BBF803B05DF804FB676666669D
:101DDC0010B582B0044601230DF107020C21FFF768
:101DEC0079FE9DF8073043F020038DF8073001236E
:101DFC000DF107020C212046FFF794FE02B010BD36
:101E0C0030B583B004460B7B062B2BD90C25012354
:101E1C000DF106021E212046FFF75CFE9DF80630F0
:101E2C0003F00F0303EB05138DF8073001230DF1BD
:101E3C0007021E212046FFF775FE03238DF805309F
:101E4C0001230DF1050231212046FFF76BFE0A2319
:101E5C008DF80430012301AA37212046FFF762FEDA
:101E6C0003B030BD0725D2E710B582B0044601237C
:101E7C000DF107021E21FFF72DFE9DF8073043F0F0
:101E8C0007038DF8063001230DF106021E212046B2
:101E9C00FFF748FE02B010BD00B583B0FF238DF8EC
:101EAC00073001230DF107021F21FFF73BFE03B0A2
:101EBC005DF804FB00B583B000238DF807304A7B36
:101ECC008B7B5B0043EA02138DF8073001230DF185
:101EDC0007021D21FFF726FE03B05DF804FB10B5C9
:101EEC0082B004464B8A1A0A8DF807208DF806300A
:101EFC0001230DF107022021FFF714FE01230DF140
:101F0C00060221212046FFF70DFE02B010BD30B5B0
:101F1C0083B004460D4601230DF107024221FFF761
:101F2C00D9FD9DF80730122B02D0002003B030BD34
:101F3C0000212046FFF736FE2046FFF71BFE294600
:101F4C002046FFF7D7FE012229462046FFF700FF67
:101F5C0064212046FFF704FF012305F10A020E213C
:101F6C002046FFF7DFFD012305F10B020F21204670
:101F7C00FFF7D8FD2046FFF72BFF2046FFF7ABFEFF
:101F8C0029462046FFF73CFF29462046FFF792FFE3
:101F9C002046FFF781FF2046FFF766FF29462046C3
:101FAC00FFF79DFF01212046FFF7FCFD0120BDE757
:101FBC000C480D490D4A002302E0D458C450043398
:101FCC00C4188C42F9D30A4A0A4C002301E013606E
:101FDC000432A242FBD3FFF77BFD00F00FF8FEF7B3
:101FEC00FDFA7047000000200C000020AC20000817
:101FFC000C000020E8000020FEE7000070B5002671
:10200C000C4D0D4C641BA410A64209D100F022F813
:10201C0000260A4D0A4C641BA410A64205D170BDC3
:10202C0055F8043B98470136EEE755F8043B9847C2
:10203C000136F2E7A4200008A4200008A420000820
:10204C00A820000803460244934200D1704703F8CD
:10205C00011BF9E7F8B500BFF8BC08BC9E467047F9
:0C206C00F8B500BFF8BC08BC9E467047E9
:1020780002030405060708090A0B0C0D0E0F1010C1
:10208800000000000000000000000000010203043E
:042098000607080926
:08209C00E0E0FF7F01000000FD
:0420A40031010008FE
:0420A8000D0100081E
:0C20AC0001000000100000000024F400FF
:0400000508001FBD13
:00000001FF
