:020000040800F2
:100000000028002035230008790B00087B0B00082E
:100010007D0B00087F0B0008810B0008000000002A
:10002000000000000000000000000000830B00083A
:10003000850B000800000000870B0008890B0008F2
:100040007D2300087D2300087D2300087D23000810
:100050007D2300087D2300087D2300087D23000800
:100060007D2300087D2300087D2300087D230008F0
:100070007D2300087D2300087D2300087D230008E0
:100080007D2300087D2300087D2300087D230008D0
:100090007D2300087D2300087D2300087D230008C0
:1000A0007D2300087D2300087D2300087D230008B0
:1000B0007D2300087D230008000000007D23000848
:1000C0007D23000800000000000000007D230008E0
:1000D000000000007D2300087D23000800000000D0
:1000E0007D2300087D2300087D2300080000000018
:1000F0000000000000000000000000000000000000
:0C01000000000000000000005FF808F1A3
:1001100010B5054C237833B9044B13B10448AFF341
:1001200000800123237010BD0C000020000000009F
:10013000D823000808B5034B1BB103490348AFF3AC
:10014000008008BD0000000010000020D823000837
:1001500081F0004102E000BF83F0004330B54FEA78
:1001600041044FEA430594EA050F08BF90EA020FE5
:100170001FBF54EA000C55EA020C7FEA645C7FEA78
:10018000655C00F0E2804FEA5454D4EB5555B8BF9B
:100190006D420CDD2C4480EA020281EA030382EA0C
:1001A000000083EA010180EA020281EA0303362D9E
:1001B00088BF30BD11F0004F4FEA01314FF4801C71
:1001C0004CEA113102D0404261EB410113F0004F83
:1001D0004FEA03334CEA133302D0524263EB43033A
:1001E00094EA050F00F0A780A4F10104D5F1200ED8
:1001F0000DDB02FA0EFC22FA05F2801841F1000133
:1002000003FA0EF2801843FA05F359410EE0A5F106
:1002100020050EF1200E012A03FA0EFC28BF4CF037
:10022000020C43FA05F3C01851EBE37101F00045ED
:1002300007D54FF0000EDCF1000C7EEB00006EEBFA
:100240000101B1F5801F1BD3B1F5001F0CD3490884
:100250005FEA30004FEA3C0C04F101044FEA4452DB
:1002600012F5800F80F09A80BCF1004F08BF5FEA62
:10027000500C50F1000041EB045141EA050130BD42
:100280005FEA4C0C404141EB0101013C28BFB1F554
:10029000801FE9D291F0000F04BF01460020B1FA9F
:1002A00081F308BF2033A3F10B03B3F120020CDA72
:1002B0000C3208DD02F1140CC2F10C0201FA0CF050
:1002C00021FA02F10CE002F11402D8BFC2F1200CB5
:1002D00001FA02F120FA0CFCDCBF41EA0C0190406B
:1002E000E41AA2BF01EB0451294330BD6FEA0404B4
:1002F0001F3C1CDA0C340EDC04F11404C4F120029F
:1003000020FA04F001FA02F340EA030021FA04F3B0
:1003100045EA030130BDC4F10C04C4F1200220FA07
:1003200002F001FA04F340EA0300294630BD21FA45
:1003300004F0294630BD94F0000F83F4801306BF0B
:1003400081F480110134013D4EE77FEA645C18BFFF
:100350007FEA655C29D094EA050F08BF90EA020F96
:1003600005D054EA000C04BF1946104630BD91EA8E
:10037000030F1EBF0021002030BD5FEA545C05D191
:100380004000494128BF41F0004130BD14F58004D0
:100390003CBF01F5801130BD01F0004545F0FE4144
:1003A00041F470014FF0000030BD7FEA645C1ABF79
:1003B000194610467FEA655C1CBF0B46024650EAB0
:1003C000013406BF52EA033591EA030F41F40021DC
:1003D00030BD00BF90F0000F04BF0021704730B562
:1003E0004FF4806404F132044FF000054FF0000137
:1003F00050E700BF90F0000F04BF0021704730B5F8
:100400004FF4806404F1320410F0004548BF4042CC
:100410004FF000013EE700BF42004FEAE2014FEA21
:1004200031014FEA02701FBF12F07F4393F07F4FFC
:1004300081F06051704732F07F4208BF704793F0FF
:100440007F4F04BF41F40021704730B54FF4607412
:1004500001F0004521F000411CE700BF50EA010215
:1004600008BF704730B54FF000050AE050EA0102BE
:1004700008BF704730B511F0004502D5404261EB2E
:1004800041014FF4806404F132045FEA915C3FF46F
:10049000D8AE4FF003025FEADC0C18BF03325FEA0C
:1004A000DC0C18BF033202EBDC02C2F1200300FABD
:1004B00003FC20FA02F001FA03FE40EA0E0021FAE2
:1004C00002F11444BDE600BF70B54FF0FF0C4CF4D0
:1004D000E06C1CEA11541DBF1CEA135594EA0C0F82
:1004E00095EA0C0F00F0DEF82C4481EA030621EABD
:1004F0004C5123EA4C5350EA013518BF52EA0335F8
:1005000041F4801143F4801338D0A0FB02CE4FF0A9
:100510000005E1FB02E506F00042E0FB03E54FF0D9
:100520000006E1FB03569CF0000F18BF4EF0010ED1
:10053000A4F1FF04B6F5007F64F5407404D25FEACD
:100540004E0E6D4146EB060642EAC62141EA555180
:100550004FEAC52040EA5E504FEACE2EB4F1FD0CC2
:1005600088BFBCF5E06F1ED8BEF1004F08BF5FEA40
:10057000500E50F1000041EB045170BD06F00046F2
:1005800046EA010140EA020081EA0301B4EB5C049F
:10059000C2BFD4EB0C0541EA045170BD41F4801197
:1005A0004FF0000E013C00F3AB8014F1360FDEBFBC
:1005B000002001F0004170BDC4F10004203C35DA98
:1005C0000C341BDC04F11404C4F1200500FA05F31B
:1005D00020FA04F001FA05F240EA020001F00042BC
:1005E00021F0004110EBD37021FA04F642EB060132
:1005F0005EEA430E08BF20EAD37070BDC4F10C045C
:10060000C4F1200500FA04F320FA05F001FA04F21F
:1006100040EA020001F0004110EBD37041F100010B
:100620005EEA430E08BF20EAD37070BDC4F1200516
:1006300000FA05F24EEA020E20FA04F301FA05F27E
:1006400043EA020321FA04F001F0004121FA04F226
:1006500020EA020000EBD3705EEA430E08BF20EAF6
:10066000D37070BD94F0000F0FD101F00046400030
:1006700041EB010111F4801F08BF013CF7D041EAB2
:10068000060195F0000F18BF704703F000465200B6
:1006900043EB030313F4801F08BF013DF7D043EA87
:1006A0000603704794EA0C0F0CEA135518BF95EA3D
:1006B0000C0F0CD050EA410618BF52EA4306D1D1C4
:1006C00081EA030101F000414FF0000070BD50EAE3
:1006D000410606BF1046194652EA430619D094EA6D
:1006E0000C0F02D150EA013613D195EA0C0F05D157
:1006F00052EA03361CBF104619460AD181EA0301AB
:1007000001F0004141F0FE4141F470014FF0000062
:1007100070BD41F0FE4141F4780170BD70B54FF0FD
:10072000FF0C4CF4E06C1CEA11541DBF1CEA13557D
:1007300094EA0C0F95EA0C0F00F0A7F8A4EB05045F
:1007400081EA030E52EA03354FEA013100F0888056
:100750004FEA03334FF0805545EA131343EA12631F
:100760004FEA022245EA111545EA10654FEA0026D4
:100770000EF000419D4208BF964244F1FD0404F58D
:10078000407402D25B084FEA3202B61A65EB0305E9
:100790005B084FEA32024FF480104FF4002CB6EBA6
:1007A000020E75EB030E22BFB61A754640EA0C0026
:1007B0005B084FEA3202B6EB020E75EB030E22BF66
:1007C000B61A754640EA5C005B084FEA3202B6EBA7
:1007D000020E75EB030E22BFB61A754640EA9C0066
:1007E0005B084FEA3202B6EB020E75EB030E22BF36
:1007F000B61A754640EADC0055EA060E18D04FEAF4
:10080000051545EA16754FEA06164FEAC30343EA93
:1008100052734FEAC2025FEA1C1CC0D111F4801F60
:100820000BD141EA00014FF000004FF0004CB6E759
:1008300011F4801F04BF01430020B4F1FD0C88BFF8
:10084000BCF5E06F3FF6AFAEB5EB030C04BFB6EB03
:10085000020C5FEA500C50F1000041EB045170BDF6
:100860000EF0004E4EEA113114EB5C04C2BFD4EB23
:100870000C0541EA045170BD41F480114FF0000EA7
:10088000013C90E645EA060E8DE60CEA135594EA23
:100890000C0F08BF95EA0C0F3FF43BAF94EA0C0F26
:1008A0000AD150EA01347FF434AF95EA0C0F7FF49B
:1008B00025AF104619462CE795EA0C0F06D152EAEF
:1008C00003353FF4FDAE1046194622E750EA4106D3
:1008D00018BF52EA43067FF4C5AE50EA41047FF4E4
:1008E0000DAF52EA43057FF4EBAE12E74A0011D296
:1008F00012F5001211D20DD56FF47873B3EB62527A
:100900000ED44FEAC12343F0004343EA505323FA85
:1009100002F070474FF00000704750EA013002D1FA
:100920004FF0FF3070474FF00000704730B587B090
:10093000002402940394049405940E4B9A6942F0A7
:1009400004029A619B6903F004030193019B0A4D21
:1009500022460821284601F0C3F908230293012307
:10096000039304940223059302A9284601F0A8F8F2
:1009700007B030BD00100240000801400F4B0022BC
:100980001A70012058700E495960F72119724FF002
:10099000050C83F809C09A728021D9720821197355
:1009A00083F80DC09873DA7341F22440188259829B
:1009B0001A755A759A75DA75704700BFC80000201D
:1009C0000035E03072B6FEE708B50D480D4B036008
:1009D0004FF48273436000238360C360036143610B
:1009E0004FF4802282611022C261036243628362FB
:1009F0000A23C36200F0E8F900B908BDFFF7E2FF7F
:100A0000280000200030014000B587B00023029389
:100A10000393049305930093019314484FF080428D
:100A200002600A22426083604FF6FF72C260036177
:100A3000836101F019FA90B94FF48053029302A92F
:100A40000A4801F049FA60B900230093019369460E
:100A5000064801F0AFFA30B907B05DF804FBFFF7C4
:100A6000B1FFFFF7AFFFFFF7ADFF00BF8000002031
:100A700000B591B02822002106A801F0A5FC0023B2
:100A80000193029303930493059302230693012297
:100A90000A9210220B920D934FF440230F9306A855
:100AA00000F01AFD78B90F230193022302938023EB
:100AB000039300210491059101A800F04BFF20B998
:100AC00011B05DF804FBFFF77DFFFFF77BFF00002F
:100AD00000B583B000F0B2FCFFF7CAFFFFF726FFB6
:100AE000FFF772FFFFF790FF204C012208212046FC
:100AF00001F0F6F8FFF742FF43F21343ADF804307C
:100B000000220821204601F0EBF8194E194D31461C
:100B1000284601F0D7FB01220821204601F0E0F829
:100B200000220821204601F0DBF8022301AA314609
:100B3000284601F083FB01220821204601F0D0F86D
:100B40000A4C00220821204601F0CAF8022301AA1B
:100B50000749084801F072FB01220821204601F0F4
:100B6000BFF84FF47A7000F08DFCE9E7000801400F
:100B7000C800002028000020FEE7FEE7FEE7FEE7B1
:100B8000FEE770477047704708B500F069FC08BD84
:100B900082B00A4B9A6942F001029A619A6902F0A6
:100BA00001020092009ADA6942F08052DA61DB6950
:100BB00003F080530193019B02B070470010024084
:100BC00010B586B000230293039304930593026843
:100BD000164B9A4201D006B010BD03F560439A69E6
:100BE00042F480529A619A6902F480520092009A0B
:100BF0009A6942F004029A619B6903F0040301932D
:100C0000019BB02302930223039303230593084C13
:100C100002A9204600F054FF4023029300230393CF
:100C2000049302A9204600F04BFFD4E700300140B6
:100C3000000801400368B3F1804F00D0704782B0D4
:100C400003F50433DA6942F00102DA61DB6903F08B
:100C500001030193019B02B0704700002DE9F047AA
:100C600082B00546884617461E4600F005FC0A9BE2
:100C70001B1A03EB060900F0FFFB82462B4B1B6897
:100C8000C3F3CB3309FB03F301932B689C6838EA69
:100C900004030CBF4FF0010C4FF0000CBC4540D0DA
:100CA000B6F1FF3FF1D000F0E7FBA0EB0A004845AA
:100CB0000AD2B9F1000F07D0019A02B14A46019B4E
:100CC000013B01939146E0E72A68536823F0E00373
:100CD00053606B68B3F5827F0BD0AB6AB3F5005FEE
:100CE00014D0012385F85130002385F850300320BB
:100CF00018E0AB68B3F5004F02D0B3F5806FECD1CC
:100D00002A68136823F040031360E6E72A68136833
:100D100023F4005313602A68136843F400531360EC
:100D2000DFE7002002B0BDE8F08700BF0800002028
:100D300010B582B004460B46009200228021FFF7D6
:100D40008DFF08B902B010BD636D43F020036365E9
:100D50000320F7E710B582B004460B464168B1F5B1
:100D6000827F10D06168B1F5827F03D1A168B1F5AF
:100D7000806F15D00092002280212046FFF76EFF81
:100D8000E0B902B010BD8168B1F5004F02D0B1F5F5
:100D9000806FE7D12068016821F040010160E1E740
:100DA0000092002201212046FFF758FF0028E8D0DA
:100DB000636D43F0200363650320E2E7636D43F056
:100DC000200363650320DCE7002856D010B50446F5
:100DD000436A33B94368B3F5827F05D00023C3610A
:100DE00002E00023036143610023A36294F85130C1
:100DF000002B3CD0022384F851302268136823F082
:100E000040031360636803F48273A26802F404422F
:100E10001343E26802F400621343226902F0020203
:100E20001343626902F001021343A26902F40072E3
:100E30001343E26902F038021343226A02F080028F
:100E40001343A26A02F40052216813430B60638BC0
:100E5000226803F0040353602268D36923F400631B
:100E6000D36100206065012384F8513010BD84F8FF
:100E700050302046FFF7A4FEBCE7012070472DE963
:100E8000F04383B01D4690F85030012B00F0D18024
:100E9000044688469146012380F8503000F0ECFA71
:100EA000074694F85160F6B2012E40F0AF80B8F1D9
:100EB000000F00F0AC80B9F1000F00F0A880032310
:100EC00084F8513000236365C4F83080A4F834906E
:100ED000A4F83690A363A387E38763642364A368BD
:100EE000B3F5004F1ED023681A6812F0400F03D1EB
:100EF0001A6842F040021A60E368B3F5006F1CD034
:100F0000636813B1B9F1010F52D1226B23681278D3
:100F10001A73236B01332363E38E9BB2013B9BB2B5
:100F2000E38645E02268136823F0400313602268DB
:100F3000136843F480431360D5E7636813B1B9F1D4
:100F4000010F16D1226B23681288DA60236B0233FB
:100F50002363E38E9BB2013B9BB2E38609E000F082
:100F60008BFAC01BA84202D3B5F1FF3F59D1002D27
:100F700059D0E38E9BB2002B33D023689A6812F0CD
:100F8000020FECD0226B1288DA60236B02332363EA
:100F9000E38E9BB2013B9BB2E386EAE700F06CFA7A
:100FA000C01BA84202D3B5F1FF3F3ED1002D3ED079
:100FB000E38E9BB2ABB123689A6812F0020FEDD0BA
:100FC000226B12781A73236B01332363B4F836C093
:100FD0001FFA8CFC0CF1FF3C1FFA8CFCA4F836C005
:100FE000E6E73A4629462046FFF7A2FE08B120234D
:100FF0006365A36833B901932368DA6801929B683B
:101000000193019B636D13B9002600E002260123C2
:1010100084F85130002384F85030304603B0BDE8E6
:10102000F0830326F3E70326F1E70326EFE7032621
:10103000EDE70226F1E72DE9F04383B01F460A9D54
:1010400090F85030012B00F01081044688469146FC
:10105000012380F8503000F00FFA064694F8513022
:10106000DBB26268012B0AD0B2F5827F40F0E380E8
:10107000A268002A40F0E980042B40F0E880B8F133
:10108000000F00F0E680B9F1000F00F0E480002FBF
:1010900000F0E38094F85130DBB2042B02D005233A
:1010A00084F8513000236365C4F83890E787A78738
:1010B000C4F83080E786A7862364636423681A68CF
:1010C00012F0400F03D11A6842F040021A60E36840
:1010D000B3F5006F11D063680BB1012F0BD1226BF8
:1010E000236812781A73236B01332363E38E9BB258
:1010F000013B9BB2E38601276BE063680BB1012FD4
:101100000BD1226B23681288DA60236B02332363CE
:10111000E38E9BB2013B9BB2E38601271CE0236870
:101120009A6812F0010F0ED0E28F92B25AB1DA68CB
:10113000A36B1A80A36B0233A363E38F9BB2013BC3
:101140009BB2E387012700F097F9801BA84203D3E5
:10115000B5F1FF3F40F08380E38E9BB21BB9E38F74
:101160009BB2002B53D023689A6812F0020FD6D09E
:10117000E28E92B2002AD2D0002FD0D0226B1288F9
:10118000DA60236B02332363E38E9BB2013B9BB295
:10119000E3860027C3E723689A6812F0010F0ED098
:1011A000E28F92B25AB1DA68A36B1A70A36B013363
:1011B000A363E38F9BB2013B9BB2E387012700F05F
:1011C0005BF9831BAB4202D3B5F1FF3F49D1002D40
:1011D00049D0E38E9BB213B9E38F9BB2BBB12368B6
:1011E0009A6812F0020FD6D0E28E92B2002AD2D0C4
:1011F000002FD0D0226B12781A73236B0133236334
:10120000E38E9BB2013B9BB2E3860027C3E73246E5
:1012100029462046FFF78CFD48B9A36863B90193BE
:101220002368DA6801929B680193019B04E0202304
:101230006365012000E00220012384F8513000237F
:1012400084F8503003B0BDE8F0830220F4E70220B8
:10125000F2E70120F0E70120EEE70120ECE70320B0
:10126000EAE70320E8E70320E6E70220EAE72DE9C2
:10127000F04383B00446884691461D464068B0F569
:10128000827F38D094F85030012B00F0AE800123DB
:1012900084F8503000F0F0F8074694F85160F6B248
:1012A000012E40F08F80B8F1000F00F08C80B9F172
:1012B000000F00F08880042384F851300023636518
:1012C000C4F83880A4F83C90A4F83E902363A38629
:1012D000E38623646364A368B3F5004F19D02368E1
:1012E0001A6812F0400F03D11A6842F040021A60E7
:1012F000E3681BB341E0A368002BC3D1042384F847
:101300005130009513460A462046FFF794FE0646E4
:101310005FE02268136823F04003136022681368BB
:1013200023F480431360DAE700F0A6F8C01BA8425C
:1013300002D3B5F1FF3F50D1002D50D0E38F9BB2C7
:10134000002B33D023689A6812F0010FECD0A26B07
:101350001B7B1370A36B0133A363E38F9BB2013B31
:101360009BB2E387EAE700F087F8C01BA84202D3EC
:10137000B5F1FF3F35D1002D35D0E38F9BB2ABB136
:1013800023689A6812F0010FEDD0DA68A36B1A8017
:10139000A36B0233A363B4F83EC01FFA8CFC0CF1BC
:1013A000FF3C1FFA8CFCA4F83EC0E6E73A4629460B
:1013B0002046FFF7CFFC08B120236365636D13B9A6
:1013C000002600E00226012384F85130002384F82F
:1013D0005030304603B0BDE8F0830326F3E7032620
:1013E000F1E70326EFE70326EDE70226F1E7000029
:1013F00010B504460E4B18784FF47A73B3FBF0F334
:101400000C4A1068B0FBF3F000F0BAFC68B90F2C7E
:1014100001D901200AE0002221464FF0FF3000F000
:1014200077FC054B1C60002000E0012010BD00BFD0
:1014300000000020080000200400002008B5074A32
:10144000136843F010031360032000F04FFC0F20DB
:10145000FFF7CEFFFFF79CFB002008BD00200240F5
:10146000034A1168034B1B780B441360704700BF9D
:10147000E000002000000020014B1868704700BF0A
:10148000E000002038B50446FFF7F6FF0546B4F14A
:10149000FF3F02D0044B1B781C44FFF7EDFF401BBD
:1014A000A042FAD338BD00BF0000002082B0084B34
:1014B0001B68084AA2FB03235B0A00FB03F30193AA
:1014C00000BF019B5A1E0192002BF9D102B0704758
:1014D00008000020D34D6210002800F0F18170B5A3
:1014E00082B00446036813F0010F2CD0994B5B685F
:1014F00003F00C03042B1DD0964B5B6803F00C0328
:10150000082B12D06368B3F5803F41D0002B55D132
:1015100003F1804303F504331A6822F480321A6021
:101520001A6822F480221A6037E08A4B5B6813F451
:10153000803FE7D0874B1B6813F4003F03D06368FC
:10154000002B00F0BF81236813F0020F75D0814B90
:101550005B6813F00C0F5FD07E4B5B6803F00C03ED
:10156000082B54D02369002B00F08A807A4B01228B
:101570001A60FFF781FF0546764B1B6813F0020FD8
:1015800075D1FFF779FF401B0228F5D903209EE1B2
:10159000704A136843F480331360636843B3FFF702
:1015A0006BFF05466B4B1B6813F4003FCBD1FFF775
:1015B00063FF401B6428F5D9032088E1B3F5A02F11
:1015C00009D0644B1A6822F480321A601A6822F437
:1015D00080221A60E1E703F18043A3F53C331A68E7
:1015E00042F480221A601A6842F480321A60D4E70A
:1015F000FFF742FF0546574B1B6813F4003FA2D08C
:10160000FFF73AFF401B6428F5D903205FE1514BF7
:101610005B6813F4803FA5D14E4B1B6813F0020F9B
:1016200003D02369012B40F04F814A4A136823F00D
:10163000F803616943EAC1031360236813F0080FDC
:1016400033D0A369002B5CD0434B0122C3F8802424
:10165000FFF712FF05463F4B5B6A13F0020F21D1E3
:10166000FFF70AFF401B0228F5D903202FE1394A72
:10167000136823F0F803616943EAC1031360DCE7F0
:10168000354B00221A60FFF7F7FE0546314B1B6809
:1016900013F0020FD1D0FFF7EFFE401B0228F5D95F
:1016A000032014E10120FFF701FF236813F0040F6A
:1016B00000F09680274BDB6913F0805F34D1254B17
:1016C000DA6942F08052DA61DB6903F080530193FA
:1016D000019B0125214B1B6813F4807F26D0E36812
:1016E000012B3DD0002B53D103F1804303F504338C
:1016F0001A6A22F001021A621A6A22F004021A62BD
:1017000033E0154B0022C3F88024FFF7B5FE0546F1
:10171000104B5B6A13F0020FC7D0FFF7ADFE401B02
:101720000228F5D90320D2E00025D3E70B4A13683D
:1017300043F480731360FFF79FFE0646074B1B6858
:1017400013F4807FCBD1FFF797FE801B6428F5D977
:101750000320BCE000100240000042420070004044
:101760005F4A136A43F001031362E36833B3FFF780
:1017700083FE06465A4B1B6A13F0020F2FD1FFF768
:101780007BFE801B41F288339842F3D903209EE010
:10179000052B09D0524B1A6A22F001021A621A6A0A
:1017A00022F004021A62E0E74D4B1A6A42F004028A
:1017B0001A621A6A42F001021A62D6E7FFF75CFE6B
:1017C0000646474B1B6A13F0020F08D0FFF754FE82
:1017D000801B41F288339842F3D9032077E0E5B9C2
:1017E000E369002B72D03E4A526802F00C02082ACC
:1017F00056D0022B17D03B4B00221A66FFF73CFE57
:101800000446374B1B6813F0007F47D0FFF734FEC8
:10181000001B0228F5D9032059E0314AD36923F08F
:101820008053D361DCE72F4B00221A66FFF724FEBA
:1018300005462B4B1B6813F0007F06D0FFF71CFEFC
:10184000401B0228F5D9032041E0236AB3F5803F0D
:101850001AD023494B6823F47413226A606A024346
:1018600013434B601F4B01221A66FFF705FE044627
:101870001B4B1B6813F0007F0ED1FFF7FDFD001B13
:101880000228F5D9032022E0154A536823F40033D7
:10189000A1680B435360DCE7002018E0002016E04D
:1018A000012B16D00E4B5B6803F48031226A914203
:1018B00011D103F47013626A93420ED1002006E046
:1018C00001207047012002E0012000E0002002B06A
:1018D00070BD0120FBE70120F9E70120F7E700BF19
:1018E000001002400000424286B0164B0FCB0DF1B3
:1018F000180C0CE90F0040F20123ADF80430124B34
:101900005B6803F00C02082A02D0104806B070474A
:10191000C3F38342624412F8100C13F4803F0CD0DE
:10192000094B5B68C3F34043634413F8143C074A14
:1019300002FB00F0B0FBF3F0E8E7054B03FB00F01F
:10194000E4E700BFF42300080010024000127A0010
:1019500000093D00002800F0A08070B50D46044647
:10196000524B1B6803F007038B420BD24F4A13689C
:1019700023F007030B431360136803F007038B4244
:1019800040F08D80236813F0020F17D013F0040F7E
:1019900004D0474A536843F4E0635360236813F06C
:1019A000080F04D0424A536843F460535360404ADE
:1019B000536823F0F003A1680B435360236813F0CE
:1019C000010F31D06368012B20D0022B25D0384A7B
:1019D000126812F0020F64D035494A6822F00302FF
:1019E00013434B60FFF748FD0646314B5B6803F03D
:1019F0000C036268B3EB820F16D0FFF73DFD801B2E
:101A000041F288339842F0D9032045E0284A126811
:101A100012F4003FE0D101203EE0254A126812F0A6
:101A2000007FD9D1012037E0204B1B6803F007036A
:101A3000AB420AD91D4A136823F007032B431360F6
:101A4000136803F00703AB422DD1236813F0040F92
:101A500006D0174A536823F4E063E1680B435360F0
:101A6000236813F0080F07D0114A536823F460531A
:101A7000216943EAC1035360FFF736FF0C4B5B68F3
:101A8000C3F303130B4AD35CD8400B4B18600B4BCA
:101A90001868FFF7ADFC002070BD012070470120E1
:101AA000FAE70120F8E70120F6E700BF0020024036
:101AB0000010024008240008080000200400002054
:101AC00070B582B00024A4468BE07F4DAA4210D0AE
:101AD00007D97E4DAA420CD005F58035AA4208D020
:101AE00015E0A5F58015AA4203D005F57025AA4298
:101AF00009D18A68002A00F0BF80012A00F0B7806F
:101B00004361082403E0A5F58015AA42F1D0BEF197
:101B1000FF0F00F2B3800646BEF1FF0F00F2B08067
:101B20004FEA8C0233680F25954023EA050304FA37
:101B300002F2134333604B6813F0805F4FD0644B65
:101B40009A6942F001029A619B6903F001030193D3
:101B5000019B4FEA9C02951C5E4B53F825600CF0EC
:101B600003039D000F23AB4026EA03065A4B98421D
:101B700000F08C8003F58063984200F0898003F5C3
:101B80008063984200F080800323AB4033430232ED
:101B9000504D45F822304B6813F4803F7AD04F4ABD
:101BA000136843EA0E0313604B6813F4003F77D0C9
:101BB0004A4A536843EA0E0353604B6813F4801F8C
:101BC00074D0464A936843EA0E0393604B6813F45B
:101BD000001F71D0414AD36843EA0E03D3600CF171
:101BE000010C0A6832FA0CF36CD0012303FA0CF3EF
:101BF00002EA030E33EA0202F1D14A68122A3FF6E2
:101C000064AF122A83D801A555F822F0F31A000810
:101C1000591C0008631C0008751C00080F1B0008F5
:101C20000F1B00080F1B00080F1B00080F1B0008EC
:101C30000F1B00080F1B00080F1B00080F1B0008DC
:101C40000F1B00080F1B00080F1B00080F1B0008CC
:101C50005D1C0008691C0008CC6858E7CC68043497
:101C600055E7CC68083452E7CC680C344FE7036181
:101C700008244CE700244AE7042448E7061D4BE704
:101C8000ACF1080292004DE702237EE700237CE7D7
:101C900001237AE7114A136823EA0E03136083E7EE
:101CA0000E4A536823EA0E03536086E70B4A936893
:101CB00023EA0E03936089E7084AD36823EA0E03F8
:101CC000D3608CE702B070BD00002210000031101C
:101CD00000100240000001400008014000040140E3
:101CE0000AB101617047090401617047074AD3686E
:101CF00023F4E0631B041B0C000200F4E0600343C8
:101D000043F0BF6343F40033D360704700ED00E05D
:101D100000B5194BDB68C3F30223C3F1070CBCF118
:101D2000040F28BF4FF0040C03F1040EBEF1060FA0
:101D300018D9033B4FF0FF3E0EFA0CFC21EA0C01D0
:101D400099400EFA03F322EA0303194300280BDB40
:101D50000901C9B200F1604000F5614080F800134C
:101D60005DF804FB0023E5E700F00F000901C9B2AC
:101D7000024B1954F4E700BF00ED00E014ED00E061
:101D80000138B0F1807F0BD24FF0E0235861054A53
:101D9000F02182F823100020986107221A61704711
:101DA0000120704700ED00E010B4036A046A24F0DB
:101DB00001040462846924F0F00C4CEA021223F05E
:101DC0000A030B438261036210BC704710B4046ABB
:101DD00024F0100404628469036A24F4704C4CEA11
:101DE000023223F0A00343EA01138261036210BCB4
:101DF0007047836823F070030B4343F0070383604D
:101E0000704700000368174A904206D0B0F1804F37
:101E100003D0A2F59432904203D123F070034A68B4
:101E20001343104A904206D0B0F1804F03D0A2F580
:101E30009432904203D123F44073CA68134323F0D1
:101E400080034A69134303608B68C3620B68836233
:101E5000044B984202D00123436170470B6903632E
:101E6000F9E700BF002C014040B310B5044690F8DC
:101E70003D30F3B1022384F83D30214651F8040B84
:101E8000FFF7C0FF012384F8463084F83E3084F821
:101E90003F3084F8403084F8413084F8423084F890
:101EA000433084F8443084F8453084F83D300020D5
:101EB00010BD80F83C30FEF7BDFEDBE70120704727
:101EC00010B4846824F47F4C42EA03220A4342EAB5
:101ED0000C02826010BC704790F83C30012B66D039
:101EE00010B50446012380F83C30022380F83D30D1
:101EF0000268936823F47F4323F0770393600B68B1
:101F0000602B40D022D8402B47D00BD9502B0ED17C
:101F1000CA6849680068FFF747FF50212068FFF74B
:101F200068FF04E0202B0CD008D9302B09D0012306
:101F300084F83D30002084F83C0010BD0BB1102B1C
:101F4000F5D119462068FFF754FFF0E7702B0ED04B
:101F5000B3F5005FEBD1CB684A6889680068FFF78A
:101F6000AFFF2268936843F480439360DFE7CB6858
:101F70004A6889680068FFF7A3FF2268936843F006
:101F800077039360D3E7CA6849680068FFF71EFFCC
:101F900060212068FFF72DFFC9E7CA68496800681B
:101FA000FFF702FF40212068FFF723FFBFE7022071
:101FB0007047000090F83C30012B28D010B401236A
:101FC00080F83C30022380F83D3003685A689C68F2
:101FD00022F0700C0A6842EA0C025A6003680D4A4B
:101FE000934206D0B3F1804F03D0A2F594329342CE
:101FF00004D124F080044A6814439C60012380F8D3
:102000003D30002380F83C30184610BC7047022059
:10201000704700BF002C0140704770B582B0044685
:1020200015461E468DF80710022301220DF1070107
:10203000FEF725FF0223324629462046FFF717F90F
:1020400002B070BD00B583B00A4B1B88ADF80430F8
:1020500000238DF80630032301AA1721FFF7DDFFC7
:102060009DF805009DF8063043EA002003B05DF8B6
:1020700004FB00BFF023000870B582B0044615468B
:102080001E468DF80710022301220DF10701FEF70D
:10209000F6FE0223324629462046FEF7F0FE02B045
:1020A00070BD08B50A4601238021FFF7E5FF08BD92
:1020B00008B50123CA188A21FFF7DEFF08BD00001A
:1020C00010B582B004464868FEF784F90EA3D3E940
:1020D0000023FEF723FBFEF709FC43061A0E8DF8DA
:1020E00004201A0C8DF805201A0A8DF806208DF8A8
:1020F000073004230DEB030286212046FFF7BCFFC7
:1021000002B010BDAFF300800000000080847E416B
:1021100000B583B00B7A8DF804304B7A8DF805301A
:10212000022301AA8E21FFF7A7FF03B05DF804FB8D
:1021300000B583B08B7A8DF80430CB7A8DF80530FA
:10214000022301AA8F21FFF797FF03B05DF804FB7C
:1021500000B583B00B7B8DF804304B7B8DF80530D8
:102160008B7B8DF80630CB7B8DF8073004230DEB8D
:1021700003028B21FFF780FF03B05DF804FB08B575
:1021800013460A460D21FFF777FF08BD00B583B05F
:1021900007238DF8043040238DF805300B8A1A0A86
:1021A0008DF806208DF8073004220DEB0201FFF7B1
:1021B000E6FF03B05DF804FB00B583B04FEA112CD5
:1021C0008DF800C08DF801108DF802208DF80330D5
:1021D0009DF810308DF804309DF814308DF80530DE
:1021E00006236A468C21FFF747FF03B05DF804FB26
:1021F00008B513460A460E21FFF73EFF08BD000052
:1022000010B582B004460846FEF7F4F800220A4BE7
:10221000FEF75AF9FEF76AFB030C8DF80430030A47
:102220008DF805308DF80600032301AA832120468E
:10223000FFF722FF02B010BD0000504070B584B01F
:10224000044616461D468B7D01934B7D0093EBB2F1
:102250000A7D498AFFF7B0FF2A4631462046FFF73C
:10226000C7FF01212046FFF7CBFF00238DF80C307C
:10227000012303AAC0212046FFF7CFFE04B070BDA2
:1022800000B583B0BDF810C04FEA112E8DF800E004
:102290008DF80110110A8DF802108DF803201A0A2A
:1022A0008DF804208DF805304FEA1C238DF8063098
:1022B0008DF807C008236A461946FFF7DDFE03B014
:1022C0005DF804FB30B585B004460D46FFF7E9FE26
:1022D00029462046FFF7ECFE29462046FFF7F0FE90
:1022E00029462046FFF714FF29462046FFF730FF16
:1022F0002046FFF7A7FE0E4B1B68ADF80C301B0CF9
:102300008DF80E300023009302223F212046FFF774
:10231000B7FF032203A92046FFF731FF29462046D5
:10232000FFF734FF29462046FFF702FF05B030BD16
:10233000182400080C480D490D4A002302E0D45827
:10234000C4500433C4188C42F9D30A4A0A4C0023FF
:1023500001E013600432A242FBD3FFF75DFE00F000
:102360000FF8FEF7B5FB7047000000200C000020BE
:10237000242400080C000020E4000020FEE70000F8
:1023800070B500260C4D0D4C641BA410A64209D15B
:1023900000F022F800260A4D0A4C641BA410A64245
:1023A00005D170BD55F8043B98470136EEE755F866
:1023B000043B98470136F2E71C2400081C2400085F
:1023C0001C2400082024000803460244934200D144
:1023D000704703F8011BF9E7F8B500BFF8BC08BC6B
:1023E0009E467047F8B500BFF8BC08BC9E467047D3
:1023F0000000000002030405060708090A0B0C0D83
:102400000E0F10100000000000000000000000008F
:0C24100001020304060708090889010006
:04241C00350100087E
:04242000110100089E
:0C24240001000000100000000024F40083
:040000050800233597
:00000001FF
